:0300000002000EED
:0C000E00787FE4F6D8FD758120020055D3
:10015D00010C3601101E01142E010F33011335C190
:01016D000091
:10016F00438901758C3C758AB0D2A9D2AFD28C224B
:10012400E51264016005E512B40308750800750959
:100134001E8006750800750950E512B4010B2000F5
:100144000475112E227511FE22E512B4030A200053
:0901540004750D3522750DF7222A
:1000E900AF0C8F808FA012016F120124E5121460EA
:1000F9000E14601514601A240370EEAF10800CE51D
:10010900144511F580F5A080E0AF0F8F808FA08096
:0B011900D8E513450DF580F5A080CE61
:03000B0002009A56
:10009A00C0E0C0D0050BE50B7002050AC39509E55F
:1000AA000A950840120512E512D39403400375120B
:1000BA0000750A00750B00E51264016005E512B4CB
:1000CA00030D050EE50ED3940A4007B200800075B1
:0F00DA000E00758C3C758AB0D28CD0D0D0E0323D
:10001A000200E9E493A3F8E493A34003F68001F213
:10002A0008DFF48029E493A3F85407240CC8C333E7
:10003A00C4540F4420C8834004F456800146F6DFB6
:10004A00E4800B010204081020408090015DE47EE8
:10005A00019360BCA3FF543F30E509541FFEE493AB
:10006A00A360010ECF54C025E060A840B8E493A372
:10007A00FAE493A3F8E493A3C8C582C8CAC583CA9D
:10008A00F0A3C8C582C8CAC583CADFE9DEE780BE55
:01016E000090
:00000001FF
